:0604FA00C2A58F80D2A70D
:080500007F027EEFDEFEDFFC4E
:0105080022D0
:0A050900C2A61204FAC2A702050000
:10000300CFCDCFCECCCE12007E7C007D0A12007EF7
:04001300ED2430FFA9
:0A001700D2A61204FAC2A7020500E7
:1004C0007F381205097F0C1205097F061205097F86
:0404D0000102050917
:1004D400EF64017004ED148003ED243F4480FF12A7
:0304E400050922E5
:0A051300AC031204D4AF0402001779
:06043C008B458A4689474A
:100442001204D4E4FDAB45AA46A9478D8275830008
:0C04520012003FFF60061200170D80E949
:01045E00227B
:0A03E700EF24FFFDEE34FFFC7F0A57
:0803F1008E418F428C438D44C4
:1003F9007F017E00E4FBEBC39544E5436480F87418
:0E0409008098500AAC41AD4212006C0B80E8A6
:0104170022C2
:040418008A3E8B3F4E
:10041C001204D4AA40EAFF7E00D394007480948026
:0F042C00400D1203E7AC3EAD3F1200031A80E60D
:01043B00229E
:1002C6001204D4C3EA64809480400B7F2B1200177B
:1002D6008A508B51800E7F2D120017C3E49BF55177
:1002E600E49AF550AA4FEAFF7E00D39400748094F6
:1002F60080400D1203E7AC50AD511200031A80E6A0
:0103060022D4
:040231008A548B550B
:100235001204D4AA56EAD39400748094804037EA15
:1002450024FFFDE434FFFC7F107E001203F1AC5463
:10025500AD55CFCDCFCECCCE12007EEF540FFEC321
:10026500940A74809480EE5004243080022437FF71
:060275001200171A80BF01
:01027B002260
:040307008A598B5A2A
:10030B001204D4AA5BEAFF7E00D39400748094801D
:10031B004026EF24FFFDEE34FFFC7F021203F1AC0D
:10032B0059AD5ACFCDCFCECCCE12007EEF54012497
:08033B0030FF1200171A80CDFB
:010343002297
:10047A003000414243313233343536373800313176
:09048A0000737563636573730070
:10034400013B000108002032090000000000000009
:100354000000000000000000000000000000000099
:100364000000000000000000000000000000000089
:0B03740000000000000000000000007E
:030023000200FFD9
:1000FF00C0E0C0F0C083C082C0D075D000C000C0C7
:0D010F0001C002C003C004C005C006C00747
:10011C00AF99C298EF642B600BE53BD394007480CD
:10012C009480405A7409253BF8A607053BEF640AF6
:10013C00704CAF080508EFFB7A007540037D017F1A
:10014C00021204187B007A0079097D047F021204E4
:10015C003C753FFF75400475417C7542FF75430447
:10016C007544887BFF7A04797A12027C753B007E99
:0E017C00007F327D007B007A0079091200D3EB
:10018A00D007D006D005D004D003D002D001D000C9
:0B019A00D0D0D082D083D0F0D0E03273
:100493001204C012045F1203B57BFF7A04798B7DCB
:0804A300017F0112043C80FE00
:10045F0043878075985053890F438920758BFA75A0
:0B046F008DFAC2ABD28ED2AFD2AC220D
:08051D008F993099FDC299226B
:1004E700120026FF600C12051D740129F9E43AFA7F
:0204F70080EE95
:0104F90022E0
:1003800041542B4349504D55583D310D0A004154BD
:100390002B4349505345525645523D312C38303845
:1003A000300D0A0041542B43495053454E443D0003
:0503B0002C000D0A0005
:1003B5007545FF7546037547807548FF7549037593
:1003C5004A8E7FC87E001204ABAB45AA46A94712E8
:1003D50004E77FC87E001204ABAB48AA49A94A02CC
:0203E50004E72B
:10027C008B3C8A3D893E7BFF7A0379A41204E7AB61
:10028C003CAA3DA93E1204E77BFF7A0379B0120425
:10029C00E7AB42AA43A9441204E77BFF7A0379B285
:1002AC001204E77F647E001204ABAB3FAA40A94165
:0A02BC001204E77F147E000204AB79
:1004AB00EF1FAC0670011E4C600A7D027CEFDCFE78
:0404BB00DDFC80ECF8
:0104BF00221A
:030000000201A555
:0C01A500787FE4F6D8FD75815B0201EC68
:10002600BB010689828A83E0225002E722BBFE02D8
:09003600E32289828A83E493220B
:10003F00BB010CE58229F582E5833AF583E0225076
:10004F0006E92582F8E622BBFE06E92582F8E222C0
:0D005F00E58229F582E5833AF583E49322DA
:10006C00EF8DF0A4A8F0CF8CF0A428CE8DF0A42EA8
:02007C00FE2262
:10007E00BC000BBE0029EF8DF084FFADF022E4CC66
:10008E00F875F008EF2FFFEE33FEEC33FCEE9DEC2F
:10009E00984005FCEE9DFE0FD5F0E9E4CEFD22ED75
:1000AE00F8F5F0EE8420D21CFEADF075F008EF2FBF
:1000BE00FFED33FD4007985006D5F0F222C398FDB0
:0500CE000FD5F0EA224D
:1000D300EF4E6012EF60010EEDBB010B89828A8344
:1000E300F0A3DFFCDEFA2289F05007F709DFFCA951
:0C00F300F022BBFEFCF309DFFCA9F022A8
:1001B100020493E493A3F8E493A34003F68001F2CD
:1001C10008DFF48029E493A3F85407240CC8C3334F
:1001D100C4540F4420C8834004F456800146F6DF1E
:1001E100E4800B0102040810204080900344E47E67
:1001F100019360BCA3FF543F30E509541FFEE49313
:10020100A360010ECF54C025E060A840B8E493A3D9
:10021100FAE493A3F8E493A3C8C582C8CAC583CA04
:10022100F0A3C8C582C8CAC583CADFE9DEE780BEBC
:01037F00007D
:00000001FF
